{
  "abi": [
    {
      "inputs": [
        {
          "internalType": "address",
          "name": "collateral",
          "type": "address"
        },
        {
          "internalType": "address",
          "name": "repayDest",
          "type": "address"
        },
        {
          "internalType": "uint256",
          "name": "supply",
          "type": "uint256"
        },
        {
          "internalType": "uint256",
          "name": "target",
          "type": "uint256"
        }
      ],
      "name": "liquidate",
      "outputs": [],
      "stateMutability": "nonpayable",
      "type": "function"
    },
    {
      "inputs": [
        {
          "internalType": "address",
          "name": "collateral",
          "type": "address"
        },
        {
          "internalType": "uint256",
          "name": "amount",
          "type": "uint256"
        }
      ],
      "name": "onCollateralTransfer",
      "outputs": [],
      "stateMutability": "nonpayable",
      "type": "function"
    },
    {
      "inputs": [
        {
          "internalType": "address",
          "name": "collateral",
          "type": "address"
        },
        {
          "internalType": "uint256",
          "name": "amount",
          "type": "uint256"
        }
      ],
      "name": "onRepaymentRefund",
      "outputs": [],
      "stateMutability": "nonpayable",
      "type": "function"
    }
  ],
  "evm": {
    "bytecode": {
      "linkReferences": {},
      "object": "608060405234801561000f575f80fd5b506103298061001d5f395ff3fe608060405234801561000f575f80fd5b506004361061003f575f3560e01c806324e22902146100435780634a45d9801461005f578063c13425741461007b575b5f80fd5b61005d600480360381019061005891906101d9565b610097565b005b610079600480360381019061007491906101d9565b6100d2565b005b61009560048036038101906100909190610217565b61010d565b005b6040517f08c379a00000000000000000000000000000000000000000000000000000000081526004016100c9906102d5565b60405180910390fd5b6040517f08c379a0000000000000000000000000000000000000000000000000000000008152600401610104906102d5565b60405180910390fd5b6040517f08c379a000000000000000000000000000000000000000000000000000000000815260040161013f906102d5565b60405180910390fd5b5f80fd5b5f73ffffffffffffffffffffffffffffffffffffffff82169050919050565b5f6101758261014c565b9050919050565b6101858161016b565b811461018f575f80fd5b50565b5f813590506101a08161017c565b92915050565b5f819050919050565b6101b8816101a6565b81146101c2575f80fd5b50565b5f813590506101d3816101af565b92915050565b5f80604083850312156101ef576101ee610148565b5b5f6101fc85828601610192565b925050602061020d858286016101c5565b9150509250929050565b5f805f806080858703121561022f5761022e610148565b5b5f61023c87828801610192565b945050602061024d87828801610192565b935050604061025e878288016101c5565b925050606061026f878288016101c5565b91505092959194509250565b5f82825260208201905092915050565b7f45727200000000000000000000000000000000000000000000000000000000005f82015250565b5f6102bf60038361027b565b91506102ca8261028b565b602082019050919050565b5f6020820190508181035f8301526102ec816102b3565b905091905056fea2646970667358221220272f3a3ecbc3b0a463b7c4488323271697cea404f8546af20c1a220df444ab1f64736f6c63430008180033",
      "opcodes": "PUSH1 0x80 PUSH1 0x40 MSTORE CALLVALUE DUP1 ISZERO PUSH2 0xF JUMPI PUSH0 DUP1 REVERT JUMPDEST POP PUSH2 0x329 DUP1 PUSH2 0x1D PUSH0 CODECOPY PUSH0 RETURN INVALID PUSH1 0x80 PUSH1 0x40 MSTORE CALLVALUE DUP1 ISZERO PUSH2 0xF JUMPI PUSH0 DUP1 REVERT JUMPDEST POP PUSH1 0x4 CALLDATASIZE LT PUSH2 0x3F JUMPI PUSH0 CALLDATALOAD PUSH1 0xE0 SHR DUP1 PUSH4 0x24E22902 EQ PUSH2 0x43 JUMPI DUP1 PUSH4 0x4A45D980 EQ PUSH2 0x5F JUMPI DUP1 PUSH4 0xC1342574 EQ PUSH2 0x7B JUMPI JUMPDEST PUSH0 DUP1 REVERT JUMPDEST PUSH2 0x5D PUSH1 0x4 DUP1 CALLDATASIZE SUB DUP2 ADD SWAP1 PUSH2 0x58 SWAP2 SWAP1 PUSH2 0x1D9 JUMP JUMPDEST PUSH2 0x97 JUMP JUMPDEST STOP JUMPDEST PUSH2 0x79 PUSH1 0x4 DUP1 CALLDATASIZE SUB DUP2 ADD SWAP1 PUSH2 0x74 SWAP2 SWAP1 PUSH2 0x1D9 JUMP JUMPDEST PUSH2 0xD2 JUMP JUMPDEST STOP JUMPDEST PUSH2 0x95 PUSH1 0x4 DUP1 CALLDATASIZE SUB DUP2 ADD SWAP1 PUSH2 0x90 SWAP2 SWAP1 PUSH2 0x217 JUMP JUMPDEST PUSH2 0x10D JUMP JUMPDEST STOP JUMPDEST PUSH1 0x40 MLOAD PUSH32 0x8C379A000000000000000000000000000000000000000000000000000000000 DUP2 MSTORE PUSH1 0x4 ADD PUSH2 0xC9 SWAP1 PUSH2 0x2D5 JUMP JUMPDEST PUSH1 0x40 MLOAD DUP1 SWAP2 SUB SWAP1 REVERT JUMPDEST PUSH1 0x40 MLOAD PUSH32 0x8C379A000000000000000000000000000000000000000000000000000000000 DUP2 MSTORE PUSH1 0x4 ADD PUSH2 0x104 SWAP1 PUSH2 0x2D5 JUMP JUMPDEST PUSH1 0x40 MLOAD DUP1 SWAP2 SUB SWAP1 REVERT JUMPDEST PUSH1 0x40 MLOAD PUSH32 0x8C379A000000000000000000000000000000000000000000000000000000000 DUP2 MSTORE PUSH1 0x4 ADD PUSH2 0x13F SWAP1 PUSH2 0x2D5 JUMP JUMPDEST PUSH1 0x40 MLOAD DUP1 SWAP2 SUB SWAP1 REVERT JUMPDEST PUSH0 DUP1 REVERT JUMPDEST PUSH0 PUSH20 0xFFFFFFFFFFFFFFFFFFFFFFFFFFFFFFFFFFFFFFFF DUP3 AND SWAP1 POP SWAP2 SWAP1 POP JUMP JUMPDEST PUSH0 PUSH2 0x175 DUP3 PUSH2 0x14C JUMP JUMPDEST SWAP1 POP SWAP2 SWAP1 POP JUMP JUMPDEST PUSH2 0x185 DUP2 PUSH2 0x16B JUMP JUMPDEST DUP2 EQ PUSH2 0x18F JUMPI PUSH0 DUP1 REVERT JUMPDEST POP JUMP JUMPDEST PUSH0 DUP2 CALLDATALOAD SWAP1 POP PUSH2 0x1A0 DUP2 PUSH2 0x17C JUMP JUMPDEST SWAP3 SWAP2 POP POP JUMP JUMPDEST PUSH0 DUP2 SWAP1 POP SWAP2 SWAP1 POP JUMP JUMPDEST PUSH2 0x1B8 DUP2 PUSH2 0x1A6 JUMP JUMPDEST DUP2 EQ PUSH2 0x1C2 JUMPI PUSH0 DUP1 REVERT JUMPDEST POP JUMP JUMPDEST PUSH0 DUP2 CALLDATALOAD SWAP1 POP PUSH2 0x1D3 DUP2 PUSH2 0x1AF JUMP JUMPDEST SWAP3 SWAP2 POP POP JUMP JUMPDEST PUSH0 DUP1 PUSH1 0x40 DUP4 DUP6 SUB SLT ISZERO PUSH2 0x1EF JUMPI PUSH2 0x1EE PUSH2 0x148 JUMP JUMPDEST JUMPDEST PUSH0 PUSH2 0x1FC DUP6 DUP3 DUP7 ADD PUSH2 0x192 JUMP JUMPDEST SWAP3 POP POP PUSH1 0x20 PUSH2 0x20D DUP6 DUP3 DUP7 ADD PUSH2 0x1C5 JUMP JUMPDEST SWAP2 POP POP SWAP3 POP SWAP3 SWAP1 POP JUMP JUMPDEST PUSH0 DUP1 PUSH0 DUP1 PUSH1 0x80 DUP6 DUP8 SUB SLT ISZERO PUSH2 0x22F JUMPI PUSH2 0x22E PUSH2 0x148 JUMP JUMPDEST JUMPDEST PUSH0 PUSH2 0x23C DUP8 DUP3 DUP9 ADD PUSH2 0x192 JUMP JUMPDEST SWAP5 POP POP PUSH1 0x20 PUSH2 0x24D DUP8 DUP3 DUP9 ADD PUSH2 0x192 JUMP JUMPDEST SWAP4 POP POP PUSH1 0x40 PUSH2 0x25E DUP8 DUP3 DUP9 ADD PUSH2 0x1C5 JUMP JUMPDEST SWAP3 POP POP PUSH1 0x60 PUSH2 0x26F DUP8 DUP3 DUP9 ADD PUSH2 0x1C5 JUMP JUMPDEST SWAP2 POP POP SWAP3 SWAP6 SWAP2 SWAP5 POP SWAP3 POP JUMP JUMPDEST PUSH0 DUP3 DUP3 MSTORE PUSH1 0x20 DUP3 ADD SWAP1 POP SWAP3 SWAP2 POP POP JUMP JUMPDEST PUSH32 0x4572720000000000000000000000000000000000000000000000000000000000 PUSH0 DUP3 ADD MSTORE POP JUMP JUMPDEST PUSH0 PUSH2 0x2BF PUSH1 0x3 DUP4 PUSH2 0x27B JUMP JUMPDEST SWAP2 POP PUSH2 0x2CA DUP3 PUSH2 0x28B JUMP JUMPDEST PUSH1 0x20 DUP3 ADD SWAP1 POP SWAP2 SWAP1 POP JUMP JUMPDEST PUSH0 PUSH1 0x20 DUP3 ADD SWAP1 POP DUP2 DUP2 SUB PUSH0 DUP4 ADD MSTORE PUSH2 0x2EC DUP2 PUSH2 0x2B3 JUMP JUMPDEST SWAP1 POP SWAP2 SWAP1 POP JUMP INVALID LOG2 PUSH5 0x6970667358 0x22 SLT KECCAK256 0x27 0x2F GASPRICE RETURNDATACOPY 0xCB 0xC3 0xB0 LOG4 PUSH4 0xB7C44883 0x23 0x27 AND SWAP8 0xCE LOG4 DIV 0xF8 SLOAD PUSH11 0xF20C1A220DF444AB1F6473 PUSH16 0x6C634300081800330000000000000000 "
    }
  }
}